:020000040800F2
:10000000E8040020AD010008AF18000871160008D0
:10001000AD180008D1050008DF1B00080000000033
:10002000000000000000000000000000B3180008FD
:10003000D305000800000000B1180008B51800083A
:10004000C7010008C7010008C7010008C701000870
:10005000C7010008C7010008C7010008D50500084E
:10006000C7010008C7010008C7010008C701000850
:10007000C7010008C7010008C7010008C701000840
:10008000C7010008C7010008C70100080000000000
:10009000000000000000000000000000C701000890
:1000A000C7010008C7010008C7010008C701000810
:1000B000C7010008C7010008C7010008C701000800
:1000C000C7010008C7010008C7010008C7010008F0
:1000D000C7010008C7010008C701000800000000B0
:1000E000C7010008C7010008C701000800000000A0
:1000F000000000000000000000000000C701000830
:1001000000000000C7010008C7010008C70100087F
:1001100000000000000000000000000000000000DF
:10012000C7010008C7010008C7010008C70100088F
:10013000C7010008000000000000000000000000EF
:10014000000000000000000000000000C7010008DF
:10015000C7010008C7010008C7010008C70100085F
:10016000C7010008C70100080000000000000000EF
:10017000000000000000000000000000000000007F
:1001800000000000C701000800000000000000009F
:10019000C7010008C7010008DFF80CD000F072F9B1
:1001A00000480047211C0008E8040020064880475A
:1001B00006480047FEE7FEE7FEE7FEE7FEE7FEE74C
:1001C000FEE7FEE7FEE7FEE72919000899010008AF
:1001D0002DE9F05F0546002092469B46884606467C
:1001E000814640241BE0284641464746224600F00F
:1001F000DCF853465A46C01A914110D311461846AE
:10020000224600F0C3F82D1A67EB01084F4622463C
:100210000120002100F0BAF817EB00094E41201E22
:10022000A4F10104DFDC484631462A464346BDE8D6
:10023000F09FD2B201E000F8012B491EFBD27047BB
:100240000022F6E710B513460A4604461946FFF7A2
:10025000F0FF204610BD2DE9F04D81EA030404F0C3
:10026000004B21F0004514464FF0000A23F00041F6
:1002700050EA050220D054EA01021DD0C5F30A5706
:100280000246C5F31303C1F31300C1F30A5640F449
:10029000801543F48013A7EB0608101BD64608F21E
:1002A000FD3873EB050002D308F1010801E0921854
:1002B0005B41B8F1000F03DA00200146BDE8F08D84
:1002C00000204FF48011064684460EE0171B73EBA6
:1002D000050705D3121B63EB050306434CEA010C2B
:1002E00049084FEA300092185B4150EA0107EDD10E
:1002F00052EA030012D082EA040083EA05010843AF
:1003000005D0101BAB4106D20122002306E00022DB
:100310004FF0004302E06FF0010253101AEB0600A9
:100320004CEB085110EB0A0041EB0B01BDE8F04D1E
:1003300000F04BB80EB540F2334102910021CDE9F7
:1003400000110A460B4600F04FF803B000BD70B52F
:10035000C1F30A5201F000450024C1F3130140F239
:10036000FF3341F480119A4201DA002070BD40F25F
:1003700033439A42A2F2334203DC524200F015F8B2
:1003800000E090402C43F1D0404270BD202A04DBB5
:10039000203A00FA02F1002070479140C2F1200398
:1003A00020FA03F3194390407047202A04DB203AD7
:1003B00021FA02F00021704721FA02F3D040C2F185
:1003C0002002914008431946704710B5141E73F17E
:1003D000000408DA401C41F1000192185B411A4305
:1003E00001D120F0010010BD2DE9F04D92469B4651
:1003F00011B1B1FA81F202E0B0FA80F220329046F7
:10040000FFF7C4FF04460F4640EA0A0041EA0B0129
:1004100053465A46084313D0114653EA010019D0F7
:10042000C8F140025046FFF7C0FF05460E46504651
:1004300059464246FFF7AAFF084305D0012004E0D1
:1004400020463946BDE8F08D0020054346EAE076B7
:100450002C4337430A986305E40AA0EB0800002206
:10046000FD0A44EA47540A3002D500200146E9E774
:10047000010510196941DDE9084500196941BDE828
:10048000F04DA2E7064C074D06E0E06840F001039E
:1004900094E8070098471034AC42F6D3FFF780FE8B
:1004A000501E0008701E0008464910B54A6822F424
:1004B00040324A604A6843681A434A6001684A68A1
:1004C00022F480724A6001684A68036942EA0322A2
:1004D0004A6001684A6822F040724A6001684A68CE
:1004E00083681A434A6001688A6822F400628A605D
:1004F00001688A68C3681A438A60816A6FF0706213
:10050000D14201688A6822F070628A6001688A6854
:100510000CD0836A1A438A6001688A6822F04052CC
:100520008A6001688A68C36A1A4301E022F0405277
:100530008A6001688A6822F002028A6001688A681B
:10054000037E42EA43028A6090F820100029016885
:100550004A680FD042F400624A6001684A6822F497
:1005600060424A6001684A68174C436A04EB4333AF
:100570001A4301E022F400624A600168CA6A22F468
:100580007002CA620168CA6A838B104C04EB035381
:100590001A43CA6201688A6822F400728A6001689C
:1005A0008A6890F8303042EA43228A6001688A689B
:1005B00022F480628A6001688A68406942EA802089
:1005C000886010BD0023014000E0FFFF0000F0FF45
:1005D000FEE77047022000F01DBA000078B5002445
:1005E000009490F83C20012A19D0012280F83C2088
:1005F0000A6807230568092A13D9EE680A3A02EB4C
:10060000420293409E43EE600B788A680A3B03EBFC
:1006100043039A400368DD682A43DA6010E0022051
:1006200078BD2E6902EB420293409E432E610B7807
:100630008A6803EB43039A4003681D692A431A61E1
:100640004A681F23072A13D205686E6B521E02EBFD
:10065000820293409E436E630A8893B20A79521EC7
:1006600002EB820293400268556B2B43536327E0F1
:1006700005680D2A12D22E6BD21F02EB8202934024
:100680009E432E630B790A88DB1F92B203EB830330
:100690009A4003681D6B2A431A6311E0EE6A0D3A13
:1006A00002EB820293409E43EE620B790A880D3B77
:1006B00092B203EB83039A400368DD6A2A43DA624D
:1006C0001B4B0568194A9D420AD10D68122D07D1AE
:1006D000556825F400055560556845F4800555605A
:1006E00005689D421DD1134D0B68AB4201D0112B03
:1006F00017D1536823F480035360536843F4000315
:1007000053600968A9420CD10B490C4A0968B1FB36
:10071000F2F101EB8101490000E0491E009100293E
:10072000FBD180F83C40002078BD00000023014050
:1007300000200140120000101000002040420F0075
:100740000068C06C704770B504004FF0000503D01E
:10075000206C002610B107E0012070BD204600F09B
:100760001DF8666484F83C60206CC00610D4206CD0
:1007700020F4885040F0020020642046FFF794FEE9
:100780006664206C20F0020040F00100206400E06C
:10079000012584F83C60284670BD000010B586B085
:1007A000044614216846FFF74BFD11492068884232
:1007B0001CD110480021026842F480720260006877
:1007C00000F4807005900B481438026842F0010272
:1007D0000260006800F001000590012000900320F5
:1007E000CDE901016946044800F020F906B010BDCA
:1007F0000020014044380240000002402DE9F04151
:10080000044600680D4681684FF0000749050BD586
:100810008068C00508D5206C40F02000206484F872
:100820003C700120BDE8F08100F0D4F906460FE0ED
:10083000681C0DD025B100F0CDF9801BA84207D966
:10084000206C40F00400206484F83C700320E9E749
:10085000206800688007EBD521686FF012000860FF
:10086000206C40F4007020642068816811F0405FC3
:1008700013D1217E89B9C16A11F4700F02D080684A
:1008800040050AD4206C20F480702064206CC004E1
:1008900003D4206C40F0010020640020C2E7000077
:1008A00018B50021009190F83C20012A07D00122C0
:1008B00080F83C2002689368DB0702D011E0022038
:1008C00018BD936843F001039360204A204B1268DF
:1008D000B2FBF3F202EB420200E0521E0092002A49
:1008E000FBD102689368DB072DD0036C40F20164F2
:1008F000A34343F48073036453685B0505D5036C1D
:1009000023F4005343F480530364036CDB0404D5E5
:10091000436C23F00603436400E0416480F83C101C
:100920000C496FF02203136049680068C90602D0C1
:100930000949884207D1816811F0405F03D181687D
:1009400041F080418160002018BD000010000020AF
:1009500040420F00002301400020014090F83C106D
:1009600001290CD0012180F83C1001688A6822F02E
:1009700001028A6001688968C90702D007E0022085
:100980007047016C21F4885141F00101016400219C
:1009900080F83C100846704770B5044600F01AF91C
:1009A0000546601C02D004480078044400F012F9A7
:1009B000401BA042FAD370BD1400002070B5144C47
:1009C0004FF49675022810D001280DD100F002F9DD
:1009D0006168401AA84204D9E068012816D0401C7A
:1009E000E06000F0F7F8606070BD00F0F3F8216897
:1009F000401AA84204D9A068032805D0401CA06072
:100A000000F0E8F8206070BD0120F8E70020E7E77B
:100A100000000020044910B50A68024202D00860B4
:100A2000FFF7CCFF10BD0000143C01402DE9F84F4A
:100A300000224FF0010803254FF00F0E0B6808FA53
:100A400002F42340A34271D14E68012E05D0022E3C
:100A500003D0112E01D0122E15D18668570005FA49
:100A600007FC26EA0C06D1F80CC00CFA07FC4CEA8D
:100A7000060CC0F808C04668A6430C79C4F30014FD
:100A8000944034434460C668570005FA07FC8C68FC
:100A900026EA0C06BC403443C4604C68022C01D0EA
:100AA000122C13D1D40800EB8404A346D4F8209070
:100AB00054074FEAD46A0EFA0AF629EA06090E69C3
:100AC00006FA0AF646EA0906CBF8206004680E79B1
:100AD00024EA0C0406F00306BE40264306604C6878
:100AE000E40056D52E4C266846F4804626602468DD
:100AF00022F0030604F4804400942A4C3444A446B3
:100B0000D4F808489607370F0EFA07F6B443264E76
:100B1000B04201D1002615E0244EB04201D1012699
:100B200010E0234EB04202D102260BE031E0214E0C
:100B3000B04201D1032605E01F4EB04201D1042688
:100B400000E00726BE402643CCF808681B4E3468F8
:100B50004F689C43FF0300D51C433460174E361D7D
:100B600034684F689C43BF0300D51C433460134E68
:100B7000083634684F689C43FF0200D51C4334603C
:100B80000E4E0C3634684F689C43BF0200D51C43A0
:100B90003460521C102AFFF451AFBDE8F88F0000FA
:100BA000443802400030014000000240000402408E
:100BB00000080240000C024000100240003C0140CE
:100BC0000069084000D0012070470AB18161704778
:100BD0000904FBE70148806870470000140000200A
:100BE0000248816802781144816070471400002037
:100BF0000B4810B5016841F400710160016841F4CF
:100C000080610160016841F480710160032000F09F
:100C10006FF8002000F006F800F024F8002010BD66
:100C2000003C024070B50D4D04464FF47A712878AF
:100C3000B1FBF0F00A490968B1FBF0F000F0E4FA0A
:100C400048B9102C07D200222146501E00F030F87F
:100C500000206C6070BD012070BD000014000020F9
:100C6000100000200A4808B5016841F48041016085
:100C7000006800F4804000900548001F016841F0C2
:100C800080510160006800F08050009008BD0000B5
:100C900044380240002809DB00F01F020121914086
:100CA0004009800000F1E020C0F80011704700000A
:100CB000F0B40E4B1B680C46C3F30223C3F10705C7
:100CC000042D00D90425191D072901D2002300E0B5
:100CD000DB1E012606FA05F1491E214099409E407F
:100CE000761E16403143F0BC00F07ABF0CED00E0F8
:100CF000064900F0070208684FF6FF03184040EA73
:100D00000220034A10430860704700000CED00E029
:100D10000000FA052DE9F0470E46050065D0DFF822
:100D20001481D8F80000F7B200F00F00B04207D2EB
:100D300088F80070D8F8000000F00F00B04254D1DD
:100D400028683D4C810712D5400703D5206840F440
:100D5000E05020602878000703D5206840F4604008
:100D600020602068A96820F0F000084320602878FF
:100D7000C0072DD0304968680839012812D00228F0
:100D800013D0032811D00968890700292DDA2168BA
:100D900021F0030101432160FFF71CFF814641F26E
:100DA000883A0EE009688903EFE709688901ECE7F2
:100DB000FFF710FFA0EB0901514502D90320BDE860
:100DC000F0872068696800F00C00B0EB810FEFD16C
:100DD000D8F80010404601F00F01B14207D9077062
:100DE000006800F00F00B04201D00120E7E728784A
:100DF000400705D52068E96820F4E05008432060EA
:100E00002878000706D52068296920F4604040EA68
:100E1000C100206000F018F82168084AC1F30311EE
:100E2000515CC8400649086006480068FFF7FAFEB2
:100E30000020C4E7003C024008380240401E000881
:100E40001000002018000020154810B5006810F0B0
:100E50000C02144813D01449042A0FD0082A0ED1CA
:100E60000F4C241F2268236802F03F025B0207D563
:100E70002068C0F38810A0FB010106E0084610BD01
:100E80002168C1F38811A1FB00010023FFF7A0F93D
:100E90002168C1F30141491C4900B0FBF1F010BDCC
:100EA000083802400024F40040787D012DE9F84F15
:100EB000040076D02078DFF838A3CE4DC00749D0A3
:100EC000DAF800105046C1F38101012908D000680A
:100ED000C0F3810002280AD1281D0068400206D50F
:100EE0002868800336D560680028E2D032E0606868
:100EF000B0F5803F10D0B0F5A02F286810D020F4B6
:100F000080302860286820F4802028606068A0B1C4
:100F1000FFF760FE06460CE0286840F48030F4E7F6
:100F200040F480202860F7E7FFF754FE801B642818
:100F300073D828688003F7D50CE0FFF74BFE064610
:100F400005E000BFFFF746FE801B6428F0D8286844
:100F50008003F7D42078DFF8A08280074FF00009E3
:100F60003ED5DAF80010504611F00C0F09D0006899
:100F7000C0F3810002280BD19D48001F0068400289
:100F800006D42868800715D5E068012809D111E04A
:100F9000E068B8B10120C8F80000FFF71BFE064664
:100FA00005E020E1FFF716FE801B0228C0D8286864
:100FB0008007F7D52868216920F0F80040EAC100D1
:100FC00028600DE0C8F80090FFF704FE064604E034
:100FD000FFF700FE801B02281FD828688007F7D47F
:100FE0002078000722D5824E844861696C3671B141
:100FF00001210160FFF7EEFD074604E0FFF7EAFD7F
:10100000C01B022809D830688007F7D50EE0C0F869
:101010000090FFF7DFFD074605E082E0FFF7DAFD0D
:10102000C01B02287DD830688007F7D4207840079D
:1010300068D5DFF8BCB100270BF1380BDBF80000F6
:10104000C0000BD4DBF8001041F08051CBF8001049
:10105000DBF80000012700F080500090684E3068F7
:10106000C00510D4306840F480703060FFF7B2FDE6
:10107000009005E0FFF7AEFD0099401A022850D815
:101080003068C005F6D55A4EA068683601280FD0E2
:101090000528306810D020F001003060306820F062
:1010A00004003060A068B8B1FFF794FD00900FE035
:1010B000306840F00100F4E740F004003060F7E7EA
:1010C000FFF788FD0099411A41F28830814266D8C5
:1010D00030688007F4D50EE0FFF77CFD009007E054
:1010E000FFF778FD0099411A41F28830814256D8C5
:1010F00030688007F4D42FB1DBF8001021F0805164
:10110000CBF80010A069D0B3DAF800205146C2F342
:101110008102022A4AD00228484607D0C8F8600057
:1011200000E03CE0FFF756FD04463BE04746C8F8C8
:101130006000FFF74FFD064605E000BFFFF74AFDE0
:10114000801B02282BD828688001F7D4D4E9070136
:101150000843A16A2B4A490802EB0141626A41EA4D
:101160008211084394F82C1040EA01612048001FC6
:10117000016001203866FFF72DFD044605E034E0EC
:10118000FFF728FD001B022809D828688001F7D541
:101190002BE000BFFFF71EFD001B022802D9032031
:1011A000BDE8F88F28688001F4D41EE00128F7D04C
:1011B0000868E26900F48001914214D1226A00F0CB
:1011C0003F0191420FD147F6C071626A01409142DE
:1011D00009D1A26A00F44031914204D1E16A00F0E1
:1011E0007060884201D00120DAE70020D8E70000D3
:1011F000083802400038024000004742800E474253
:10120000007000400000FFFF10B5401EB0F1807F6D
:1012100001D3012010BD4FF0E02460610F21601761
:1012200000F0DEFC0020A06107202061002010BD3E
:1012300010B590F83C20012A22D0012280F83C20F1
:10124000CA688C6822F4407222434C6822F480629F
:1012500022430C6822F4006222430C6922F480527B
:1012600022434C6922F400522243C969002322F42C
:1012700080420A4301684A6480F83C30002010BD77
:10128000022010BD70B590F83C20012A2CD001241A
:1012900080F83C40022280F83D2003685A689D682F
:1012A00022F070060A6832435A60104B02689A4274
:1012B0000ED0B2F1804F0BD00D4B9A4208D00D4B9F
:1012C0009A4205D00C4B9A4202D00C4B9A4204D160
:1012D000496825F080031943916080F83D40002162
:1012E00080F83C10084670BD022070BD000001402F
:1012F0000004004000080040000C00400040014095
:1013000010B5040003D094F83D0010B107E00120AF
:1013100010BD002084F83C00204600F00DF80220AB
:1013200084F83D00211D206800F028FB012084F88E
:101330003D00002010BD000008B500680C4988423F
:1013400008D10C48016841F001010160006800F01B
:1013500001000BE00849884209D10648001F0168D6
:1013600041F004010160006800F00400009008BD35
:1013700000000140443802400008004070B50446B7
:1013800090F83C00012817D0012584F83C50022039
:1013900084F83D002068826822F0770222F47F42C0
:1013A00082600868502830D00DDC20284DD005DC44
:1013B00098B310283BD148E0022070BD302844D0BB
:1013C000402834D139E0602828D0702806D0B0F504
:1013D000805F2CD0B0F5005F29D10AE0CB68D1E95D
:1013E0000121206800F023FB2068816841F077012B
:1013F00009E0CB68D1E90121206800F018FB2068E2
:10140000816841F48041816011E0CA6849682068C0
:1014100000F0C2FB5021206807E016E0CA68496866
:10142000206800F0CAFB6021206800F00AFB84F805
:101430003D50002084F83C0070BDCA6849682068AF
:1014400000F0AAFB40212068EFE722680146104621
:10145000EBE7000010B586B0044614216846FEF79D
:10146000EFFE2368184C002118480222A34212D133
:10147000036843F010030360006800F0100005905B
:101480004FF428500090CDE901210120CDE903104F
:1014900069460F4813E00F4CA34212D1036843F092
:1014A00008030360006800F0080005904FF4405006
:1014B0000090CDE90121CDE9031269460648FFF706
:1014C000B5FA06B010BD00000000014030380240FF
:1014D0000010024000080040000C024070B50446B5
:1014E00090F83C000D4601280DD0012684F83C60A0
:1014F000022084F83D0042B1042A18D0082A2AD0DC
:101500000C2A4DD139E0022070BD206800F0A2FA0B
:101510002068816941F0080181612068816921F0BA
:1015200004018161206881692A69114311E0206802
:1015300000F0B8FA2068816941F400618161206897
:10154000816921F480618161206881692A6941EAA9
:101550000221816124E0206800F0D0FA2068C1698E
:1015600041F00801C1612068C16921F00401C16135
:101570002068C1692A69114311E0206800F0EAFA85
:101580002068C16941F40061C1612068C16921F42A
:101590008061C1612068C1692A6941EA0221C16193
:1015A00084F83D60002084F83C0070BD10B5040054
:1015B00003D094F83D0010B107E0012010BD0020D9
:1015C00084F83C00204600F00CF8022084F83D002E
:1015D000211D206800F0D2F9012084F83D00002090
:1015E00010BD704710B504460068012200F012FAE1
:1015F00009492068884203D1416C41F400414164AB
:101600002068816801F00701062903D0016841F0D4
:1016100001010160002010BD0000014010B504462A
:101620000068002200F0F6F9104B41F21111206819
:101630008A10984209D1036A0B4206D1036A134209
:1016400003D1436C23F4004343642068036A0B42D4
:1016500006D1016A114203D1016821F00101016044
:10166000012084F83D00002010BD00000000014072
:10167000FEE700007FB50024114800940194029415
:101680000E490394C0E900144FF0007104618160B9
:10169000047680F820400B49C0E90A140125C56191
:1016A000C46080F830404561FFF74DF8CDE9004552
:1016B000694603480294FEF791FF7FBD0020014078
:1016C000200000200100000FF0B587B0142168460B
:1016D000FEF7B6FD22480024016841F001010160D7
:1016E000016801F001010591016841F010010160FC
:1016F000016801F010010591016841F008010160E5
:101700000068184F00F008004FF480460590002252
:1017100031463846FFF759FA022000901248012559
:10172000CDE9010569461148FFF780F90096CDE93A
:101730000154694638460394FFF778F9E803CDE988
:101740000004694638460294FFF770F900221146FA
:101750000720FFF7ADFA0720FFF79CFA07B0F0BDAE
:1017600030380240000C024000001110000002401E
:1017700010B596B000240F94109411941294139401
:101780001C2168461494FEF75BFD202107A8FEF794
:1017900057FD24482249016042F6E061C0E9011486
:1017A0001421C0E9031444618461FFF7A9FD4FF4DB
:1017B00080500F900FA91B48FFF7E0FD1948FFF775
:1017C000F5FE139413A917481494FFF75BFD6020EE
:1017D000CDE9000402940394049405940022694620
:1017E00010480694FFF77AFE042269460D48FFF779
:1017F00075FE082269460B48FFF770FE07940894AF
:1018000009944FF400500A94CDE90B4007A905480C
:101810000E94FFF70DFD0348FFF71CFE16B010BD38
:10182000000001406800002010B58EB0002407942D
:10183000089409940A940B941C2168460C94FEF7B2
:10184000FFFC19481749016042F6E061C0E9011444
:101850001421C0E903148461FFF752FD4FF4805056
:10186000079007A91048FFF789FD0F48FFF79EFE74
:101870000B940BA90C480C94FFF704FD6020CDE9F4
:10188000000402940022694607480494FFF726FEEC
:10189000042269460448FFF721FE0348FFF7DAFDFA
:1018A0000EB010BD00080040A8000020FEE7704701
:1018B00070477047FFF794B910B592B03021684671
:1018C000FEF7BEFC14210CA8FEF7BAFC1448002455
:1018D000016841F080510160006800F08050119073
:1018E0001048016841F4404101600068069400F42A
:1018F000404011900220009001200390102004909D
:101900006846FFF7D3FA0F20CDE90C040E940F942C
:1019100000210CA81094FFF7FDF912B010BD0000D3
:1019200040380240007000401048016841F47001E6
:1019300001600F48016841F0010101600C4A00217B
:101940000832116002680B4B1A400260031D0A4AFC
:101950001A60026822F48022026005480C3001609F
:1019600002495806803908607047000088ED00E0A1
:1019700000380240FFFFF6FE10300024F0B5026888
:101980001D4B1E4C9F031E4D1E4E984207D0B84261
:1019900005D0A04203D0A84201D0B04204D122F029
:1019A000700C4A6842EA0C02984210D0B8420ED03D
:1019B000A0420CD0A8420AD0B04208D0124CA0429B
:1019C00005D0124CA04202D0114CA04203D122F407
:1019D0004074CA6822434C6922F0800222430260AC
:1019E0008A68C2620A688262984201D10969016309
:1019F00001214161F0BD00000000014000040040F1
:101A000000080040000C004000400140004401403C
:101A10000048014010B501F01F030121046A9940FC
:101A20008C430462016A9A401143016210BD10B5F3
:101A3000846842EA032224F47F440A4322438260FA
:101A400010BD826822F070020A4342F007018160F3
:101A50007047000030B5026A22F001020262026A99
:101A60004368846924F073050C682C4322F0020556
:101A70008A682A430A4DA8420BD122F00805CA6899
:101A800023F440732A434D6922F004021D438B69FD
:101A90002B434360846149684163026230BD0000AA
:101AA0000000014030B5026A22F010020262026AB0
:101AB000436884690D6824F4E64444EA05248D688B
:101AC00022F0200242EA05120B4DA8420ED1CD6849
:101AD00022F0800242EA05124D6923F4406343EA92
:101AE00085038D6922F0400243EA850343608461E7
:101AF00049688163026230BD0000014030B5026A6E
:101B000022F480720262036A4268C46923F400739B
:101B100024F073050C682C438D6843EA05230C4DB3
:101B2000A8420ED1CD6823F4006343EA05234D6932
:101B300022F4405242EA05128D6923F4806342EA9E
:101B400005124260C4614968C163036230BD000090
:101B50000000014030B5026A22F480520262046A39
:101B60004268C3690D6823F4E64343EA05238D68A0
:101B700024F4005444EA0534064DA84204D14D69CA
:101B800022F4804242EA85124260C36149680164DE
:101B9000046230BD0000014010B5036A046A24F0FD
:101BA00001040462846924F0F00444EA021423F07E
:101BB0000A020A438461026210BD10B5036A23F071
:101BC000100303628369046A23F4704343EA023218
:101BD00024F0A00343EA01118261016210BDFEE717
:101BE0000907090E002804DB00F1E02080F800144A
:101BF000704700F00F0000F1E02080F8141D7047DE
:101C000002E008C8121F08C1002AFAD170477047C5
:101C1000002001E001C1121F002AFBD17047000023
:101C20002DED028BFEF7E4FFFFF746FEFFF74CFDBC
:101C3000FFF720FDFFF79CFDFFF7F6FD7B4CDFF87B
:101C4000F0810020A06008F140099FED7A8B7B4D68
:101C50004FF4804A4FF40046E060A068012804D0A9
:101C600002280FD0032824D039E000217048FFF764
:101C7000B9FC04216E48FFF7D1FC08216C48FFF73E
:101C8000CDFC0BE000216A48FFF7C8FC042168483E
:101C9000FFF7C4FC08216648FFF7A4FC6448002154
:101CA0004030FFF7BBFC624804214030FFF79AFC4C
:101CB00015E000215E48FFF7B1FC04215C48FFF706
:101CC00091FC08215A48FFF7A9FC594800214030EF
:101CD000FFF788FC564804214030FFF79FFCE0687E
:101CE00001284CD100215248FFF77CFC04215048C8
:101CF000FFF794FC08214E48FFF790FC4C48002168
:101D00004030FFF78BFC4A4804214030FFF76AFC63
:101D10004FF4FA673846FEF73FFE00214448FFF7CC
:101D20007DFC04214248FFF779FC08214048FFF779
:101D300059FC3F4800214030FFF770FC3C4804212B
:101D40004030FFF74FFC3846FEF726FE00213848AA
:101D5000FFF764FC04213648FFF744FC08213448AF
:101D6000FFF75CFC324800214030FFF73BFC304875
:101D700004214030FFF752FC3846FEF70DFE2C4898
:101D80004838FEF78DFD2A484FF0FF314838FEF7FE
:101D900035FD28B926484838FEF7D2FC00F0FF0B85
:101DA00023484838FEF7DAFD5846FEF7C3FA53ECED
:101DB000182BFEF750FAFEF7CAFAD8F80020506345
:101DC000D8F800209063D8F80010C863D9F8002034
:101DD0005063D9F8001088633220FEF7DDFD012240
:101DE000574651462846FEF7F0FE0A20FEF7D4FD7E
:101DF000002239462846FEF7E8FE31462846FEF71F
:101E0000DFFE0028F9D0FEF7E5FE074631462846FA
:101E1000FEF7D6FE0128F9D0FEF7DCFEC01B022833
:101E2000BFF41BAF0320A06017E7000000000020F4
:101E3000680000200000000000802940000C0240E3
:101E4000000000000000000001020304060708096A
:101E5000701E00080000002020000000001C000888
:101E6000901E000820000020C8040000101C00087C
:101E70000000000000000000000000000000000062
:101E80000024F40001000000100000000000000029
:040000050800019955
:00000001FF
